{
  "contractName": "AtomicSwap",
  "abi": [
    {
      "constant": true,
      "inputs": [
        {
          "name": "",
          "type": "bytes32"
        }
      ],
      "name": "swaps",
      "outputs": [
        {
          "name": "initTimestamp",
          "type": "uint256"
        },
        {
          "name": "refundTime",
          "type": "uint256"
        },
        {
          "name": "hashedSecret",
          "type": "bytes20"
        },
        {
          "name": "secret",
          "type": "bytes32"
        },
        {
          "name": "from",
          "type": "address"
        },
        {
          "name": "to",
          "type": "address"
        },
        {
          "name": "value",
          "type": "uint256"
        },
        {
          "name": "emptied",
          "type": "bool"
        },
        {
          "name": "state",
          "type": "uint8"
        }
      ],
      "payable": false,
      "stateMutability": "view",
      "type": "function"
    },
    {
      "inputs": [],
      "payable": false,
      "stateMutability": "nonpayable",
      "type": "constructor"
    },
    {
      "anonymous": false,
      "inputs": [
        {
          "indexed": false,
          "name": "_refundTime",
          "type": "uint256"
        },
        {
          "indexed": true,
          "name": "_hashedSecret",
          "type": "bytes20"
        },
        {
          "indexed": true,
          "name": "_from",
          "type": "address"
        },
        {
          "indexed": true,
          "name": "_to",
          "type": "address"
        }
      ],
      "name": "Refunded",
      "type": "event"
    },
    {
      "anonymous": false,
      "inputs": [
        {
          "indexed": false,
          "name": "_redeemTime",
          "type": "uint256"
        },
        {
          "indexed": false,
          "name": "_secret",
          "type": "bytes32"
        },
        {
          "indexed": true,
          "name": "_hashedSecret",
          "type": "bytes20"
        },
        {
          "indexed": true,
          "name": "_from",
          "type": "address"
        },
        {
          "indexed": true,
          "name": "_to",
          "type": "address"
        }
      ],
      "name": "Redeemed",
      "type": "event"
    },
    {
      "anonymous": false,
      "inputs": [
        {
          "indexed": false,
          "name": "_initTimestamp",
          "type": "uint256"
        },
        {
          "indexed": false,
          "name": "_refundTime",
          "type": "uint256"
        },
        {
          "indexed": true,
          "name": "_hashedSecret",
          "type": "bytes20"
        },
        {
          "indexed": true,
          "name": "_from",
          "type": "address"
        },
        {
          "indexed": true,
          "name": "_to",
          "type": "address"
        },
        {
          "indexed": false,
          "name": "_value",
          "type": "uint256"
        }
      ],
      "name": "Participated",
      "type": "event"
    },
    {
      "anonymous": false,
      "inputs": [
        {
          "indexed": false,
          "name": "_initTimestamp",
          "type": "uint256"
        },
        {
          "indexed": false,
          "name": "_refundTime",
          "type": "uint256"
        },
        {
          "indexed": true,
          "name": "_hashedSecret",
          "type": "bytes20"
        },
        {
          "indexed": true,
          "name": "_from",
          "type": "address"
        },
        {
          "indexed": true,
          "name": "_to",
          "type": "address"
        },
        {
          "indexed": false,
          "name": "_value",
          "type": "uint256"
        }
      ],
      "name": "Initiated",
      "type": "event"
    },
    {
      "constant": false,
      "inputs": [
        {
          "name": "_refundTime",
          "type": "uint256"
        },
        {
          "name": "_hashedSecret",
          "type": "bytes20"
        },
        {
          "name": "_to",
          "type": "address"
        },
        {
          "name": "_type",
          "type": "uint256"
        }
      ],
      "name": "initiate",
      "outputs": [],
      "payable": true,
      "stateMutability": "payable",
      "type": "function"
    },
    {
      "constant": false,
      "inputs": [
        {
          "name": "_secret",
          "type": "bytes32"
        },
        {
          "name": "_from",
          "type": "address"
        }
      ],
      "name": "redeem",
      "outputs": [],
      "payable": false,
      "stateMutability": "nonpayable",
      "type": "function"
    },
    {
      "constant": false,
      "inputs": [
        {
          "name": "_hashedSecret",
          "type": "bytes20"
        },
        {
          "name": "_to",
          "type": "address"
        }
      ],
      "name": "refund",
      "outputs": [],
      "payable": false,
      "stateMutability": "nonpayable",
      "type": "function"
    }
  ],
  "bytecode": "0x608060405234801561001057600080fd5b50610dfe806100206000396000f300608060405260043610610062576000357c0100000000000000000000000000000000000000000000000000000000900463ffffffff168063cc3bf9e914610067578063ddd29876146100b8578063eb84e7f21461011b578063f66c75e514610228575b600080fd5b34801561007357600080fd5b506100b66004803603810190808035600019169060200190929190803573ffffffffffffffffffffffffffffffffffffffff169060200190929190505050610284565b005b6101196004803603810190808035906020019092919080356bffffffffffffffffffffffff19169060200190929190803573ffffffffffffffffffffffffffffffffffffffff16906020019092919080359060200190929190505050610439565b005b34801561012757600080fd5b5061014a60048036038101908080356000191690602001909291905050506107b4565b604051808a8152602001898152602001886bffffffffffffffffffffffff19166bffffffffffffffffffffffff1916815260200187600019166000191681526020018673ffffffffffffffffffffffffffffffffffffffff1673ffffffffffffffffffffffffffffffffffffffff1681526020018573ffffffffffffffffffffffffffffffffffffffff1673ffffffffffffffffffffffffffffffffffffffff1681526020018481526020018315151515815260200182600281111561020c57fe5b60ff168152602001995050505050505050505060405180910390f35b34801561023457600080fd5b5061028260048036038101908080356bffffffffffffffffffffffff19169060200190929190803573ffffffffffffffffffffffffffffffffffffffff169060200190929190505050610875565b005b600080610290846109e7565b915061029d833384610aa9565b90506102a881610c19565b6102b181610c6c565b600080826000191660001916815260200190815260200160002060050160009054906101000a900473ffffffffffffffffffffffffffffffffffffffff1673ffffffffffffffffffffffffffffffffffffffff166108fc6000808460001916600019168152602001908152602001600020600601549081150290604051600060405180830381858888f19350505050158015610351573d6000803e3d6000fd5b506001600080836000191660001916815260200190815260200160002060070160006101000a81548160ff02191690831515021790555083600080836000191660001916815260200190815260200160002060030181600019169055503373ffffffffffffffffffffffffffffffffffffffff168373ffffffffffffffffffffffffffffffffffffffff16836bffffffffffffffffffffffff19167f157ba0373355cbcc6834ce8d3ce689cd74b5e7d9ccbef941f8f5b42a460e989c42886040518083815260200182600019166000191681526020019250505060405180910390a450505050565b600080610447338587610aa9565b915061045282610cf6565b82600281111561045e57fe5b90506000600281111561046d57fe5b83600281111561047957fe5b600281111561048457fe5b1415151561049157600080fd5b856000808460001916600019168152602001908152602001600020600101819055504260008084600019166000191681526020019081526020016000206000018190555084600080846000191660001916815260200190815260200160002060020160006101000a81548173ffffffffffffffffffffffffffffffffffffffff02191690836c010000000000000000000000009004021790555033600080846000191660001916815260200190815260200160002060040160006101000a81548173ffffffffffffffffffffffffffffffffffffffff021916908373ffffffffffffffffffffffffffffffffffffffff16021790555083600080846000191660001916815260200190815260200160002060050160006101000a81548173ffffffffffffffffffffffffffffffffffffffff021916908373ffffffffffffffffffffffffffffffffffffffff16021790555080600080846000191660001916815260200190815260200160002060070160016101000a81548160ff0219169083600281111561061c57fe5b0217905550346000808460001916600019168152602001908152602001600020600601819055506001600281111561065057fe5b81600281111561065c57fe5b1415610709578373ffffffffffffffffffffffffffffffffffffffff163373ffffffffffffffffffffffffffffffffffffffff16866bffffffffffffffffffffffff19167f8f52c15a8dda5af727677001f0ceb13df57f42198fd5cdde86a06aee80333a4b6000808760001916600019168152602001908152602001600020600001548a3460405180848152602001838152602001828152602001935050505060405180910390a46107ac565b8373ffffffffffffffffffffffffffffffffffffffff163373ffffffffffffffffffffffffffffffffffffffff16866bffffffffffffffffffffffff19167faefbcecedc16e5f004222f446f642001f09b2289dd399f8a27c99df682ec00746000808760001916600019168152602001908152602001600020600001548a3460405180848152602001838152602001828152602001935050505060405180910390a45b505050505050565b60006020528060005260406000206000915090508060000154908060010154908060020160009054906101000a90046c0100000000000000000000000002908060030154908060040160009054906101000a900473ffffffffffffffffffffffffffffffffffffffff16908060050160009054906101000a900473ffffffffffffffffffffffffffffffffffffffff16908060060154908060070160009054906101000a900460ff16908060070160019054906101000a900460ff16905089565b6000610882338385610aa9565b905061088d81610c19565b61089681610d48565b600080826000191660001916815260200190815260200160002060040160009054906101000a900473ffffffffffffffffffffffffffffffffffffffff1673ffffffffffffffffffffffffffffffffffffffff166108fc6000808460001916600019168152602001908152602001600020600601549081150290604051600060405180830381858888f19350505050158015610936573d6000803e3d6000fd5b506001600080836000191660001916815260200190815260200160002060070160006101000a81548160ff0219169083151502179055508173ffffffffffffffffffffffffffffffffffffffff163373ffffffffffffffffffffffffffffffffffffffff16846bffffffffffffffffffffffff19167f46a852e42b72a35272d0a74fbb023743c937787af83136b880e78596240af690426040518082815260200191505060405180910390a4505050565b60006003826040516020018082600019166000191681526020019150506040516020818303038152906040526040518082805190602001908083835b602083101515610a485780518252602082019150602081019050602083039250610a23565b6001836020036101000a0380198251168184511680821785525050505050509050019150506020604051808303816000865af1158015610a8c573d6000803e3d6000fd5b505050604051516c01000000000000000000000000029050919050565b60006002848484604051602001808473ffffffffffffffffffffffffffffffffffffffff1673ffffffffffffffffffffffffffffffffffffffff166c010000000000000000000000000281526014018373ffffffffffffffffffffffffffffffffffffffff1673ffffffffffffffffffffffffffffffffffffffff166c01000000000000000000000000028152601401826bffffffffffffffffffffffff19166bffffffffffffffffffffffff1916815260140193505050506040516020818303038152906040526040518082805190602001908083835b602083101515610ba65780518252602082019150602081019050602083039250610b81565b6001836020036101000a0380198251168184511680821785525050505050509050019150506020604051808303816000865af1158015610bea573d6000803e3d6000fd5b5050506040513d6020811015610bff57600080fd5b810190808051906020019092919050505090509392505050565b60006002811115610c2657fe5b600080836000191660001916815260200190815260200160002060070160019054906101000a900460ff166002811115610c5c57fe5b14151515610c6957600080fd5b50565b6000808260001916600019168152602001908152602001600020600101546000808360001916600019168152602001908152602001600020600001540142101515610cb657600080fd5b60001515600080836000191660001916815260200190815260200160002060070160009054906101000a900460ff161515141515610cf357600080fd5b50565b60006002811115610d0357fe5b600080836000191660001916815260200190815260200160002060070160019054906101000a900460ff166002811115610d3957fe5b141515610d4557600080fd5b50565b6000808260001916600019168152602001908152602001600020600101546000808360001916600019168152602001908152602001600020600001540142111515610d9257600080fd5b60001515600080836000191660001916815260200190815260200160002060070160009054906101000a900460ff161515141515610dcf57600080fd5b505600a165627a7a72305820ab9c1081a930b438d66b05834844e34c50b3bb145675becba1488368b8a9485d0029",
  "source": "pragma solidity ^0.4.15;\n\ncontract AtomicSwap {\n\n    enum State { Empty, Initiator, Participant }\n\n    struct Swap {\n        uint initTimestamp;\n        uint refundTime;\n        bytes20 hashedSecret;\n        bytes32 secret;\n        address from;\n        address to;\n        uint256 value;\n        bool emptied;\n        State state;\n    }\n\n    mapping(bytes32 => Swap) public swaps;\n    \n\tevent Refunded(\n        uint _refundTime,\n        bytes20 indexed _hashedSecret,\n        address indexed _from,\n        address indexed _to\n    );\n    event Redeemed(\n        uint _redeemTime,\n        bytes32 _secret,\n        bytes20 indexed _hashedSecret,\n        address indexed _from,\n        address indexed _to\n    );\n    event Participated(\n        uint _initTimestamp,\n        uint _refundTime,\n        bytes20 indexed _hashedSecret,\n        address indexed _from,\n        address indexed _to,\n        uint256 _value\n    );\n\tevent Initiated(\n\t\tuint _initTimestamp,\n    \tuint _refundTime,\n    \tbytes20 indexed _hashedSecret,\n    \taddress indexed _from,\n    \taddress indexed _to,\n\t\tuint256 _value\n\t);\n\n    constructor() public {}\n\n    function calculateSecretHash(bytes32 _secret) private pure returns(bytes20 secretHash){\n        return ripemd160(abi.encodePacked(_secret));\n    }\n\n    function calculateContractHash(address _from, address _to, bytes20 _secretHash) private pure returns(bytes32 contractHash){\n        return sha256(abi.encodePacked(_from, _to, _secretHash));\n    }\n    \n\tfunction isRefundable(bytes32 _contractHash) view private{\n\t    require(block.timestamp > swaps[_contractHash].initTimestamp + swaps[_contractHash].refundTime);\n\t    require(swaps[_contractHash].emptied == false);\n\t}\n\t\n\tfunction isRedeemable(bytes32 _contractHash) view private{\n\t\trequire(block.timestamp < swaps[_contractHash].initTimestamp + swaps[_contractHash].refundTime);\n\t    require(swaps[_contractHash].emptied == false);\n\t}\n\n    function isInitiated(bytes32 _contractHash) view private{\n        require(swaps[_contractHash].state != State.Empty);\n    }\n\t\n\tfunction isNotInitiated(bytes32 _contractHash) view private {\n\t    require(swaps[_contractHash].state == State.Empty);\n\t}\n\n\tfunction initiate(uint _refundTime, bytes20 _hashedSecret, address _to, uint _type)\n        external\n\t    payable\n\t{\n        bytes32 contractHash = calculateContractHash(msg.sender, _to, _hashedSecret);\n        isNotInitiated(contractHash);\n\n        State state = State(_type);\n        require(State(_type) != State.Empty);\n\n\t    swaps[contractHash].refundTime = _refundTime;\n\t    swaps[contractHash].initTimestamp = block.timestamp;\n\t    swaps[contractHash].hashedSecret = _hashedSecret;\n        swaps[contractHash].from = msg.sender;\n\t    swaps[contractHash].to = _to;\n        swaps[contractHash].state = state;\n        swaps[contractHash].value = msg.value;\n\n        if(state == State.Initiator)\n            emit Initiated(\n                swaps[contractHash].initTimestamp,\n                _refundTime,\n                _hashedSecret,\n                msg.sender,\n                _to,\n                msg.value\n            );\n        else\n            emit Participated(\n                swaps[contractHash].initTimestamp,\n                _refundTime,\n                _hashedSecret,\n                msg.sender,\n                _to,\n                msg.value\n            );\n\t}\n\t\n\tfunction redeem(bytes32 _secret, address _from)\n        external\n\t{\n        bytes20 hashedSecret = calculateSecretHash(_secret);\n        bytes32 contractHash = calculateContractHash(_from, msg.sender, hashedSecret);\n        isInitiated(contractHash);\n        isRedeemable(contractHash);\n\n        swaps[contractHash].to.transfer(swaps[contractHash].value);\n        swaps[contractHash].emptied = true;\n        swaps[contractHash].secret = _secret;\n\n        emit Redeemed(\n            block.timestamp,\n            _secret,\n            hashedSecret,\n            _from,\n            msg.sender\n        );\n\t}\n\n\tfunction refund(bytes20 _hashedSecret, address _to)\n        external\n\t{\n        bytes32 contractHash = calculateContractHash(msg.sender, _to, _hashedSecret);\n        isInitiated(contractHash);\n        isRefundable(contractHash);\n\n        swaps[contractHash].from.transfer(swaps[contractHash].value);\n        swaps[contractHash].emptied = true;\n\n\t    emit Refunded(\n            block.timestamp,\n            _hashedSecret,\n            msg.sender,\n            _to\n        );\n\t}\n}",
  "sourcePath": "/home/superpchelka/Projects/U-Tech/UT-CORE/atomicswaps/ethatomicswap/contracts/AtomicSwap.sol",
  "compiler": {
    "name": "solc",
    "version": "0.4.24+commit.e67f0147.Emscripten.clang"
  },
  "schemaVersion": "2.0.0",
  "updatedAt": "2018-06-09T15:39:08.382Z"
}